:020000040800F2
:1000000018040020450100083D030008F302000821
:1000100039030008CF0100085D0700080000000058
:10002000000000000000000000000000A90500081A
:10003000D3010008000000003F030008BD060008CF
:100040005F0100085F0100085F0100085F01000810
:100050005F0100085F0100085F0100085F01000800
:100060005F0100085F0100085F0100085F010008F0
:100070005F0100085F0100085F0100085F010008E0
:100080005F0100085F0100085F0100085F010008D0
:100090005F0100085F0100085F0100085F010008C0
:1000A0005F0100085F0100085F0100085F010008B0
:1000B0005F0100085F0100085F0100085F010008A0
:1000C0005F0100085F0100085F0100085F01000890
:1000D0005F0100085F0100085F0100085F01000880
:1000E0005F0100085F0100085F0100085F01000870
:1000F0005F0100085F0100085F0100085F01000860
:100100005F0100085F0100085F0100085F0100084F
:100110005F0100085F0100085F0100085F0100083F
:100120005F0100085F0100085F0100085F0100082F
:10013000DFF80CD000F018F800480047F507000879
:10014000180400200648804706480047FEE7FEE7FF
:10015000FEE7FEE7FEE7FEE7FEE7FEE7FEE7FEE777
:10016000FD06000831010008064C074D06E0E06876
:1001700040F0010394E8070098471034AC42F6D3EE
:10018000FFF7DAFFAC080008CC080008F8B506460F
:100190000D4614460121304600F0D2F8ADF800407B
:1001A00003208DF8020010208DF8030069462846D0
:1001B00000F010F82146284600F001F8F8BD70B5AF
:1001C00004460D462946204600F08FF870BD00BF5A
:1001D000FEE770472DE9F041024600250026002089
:1001E00000230024002791F803C00CF00F0591F8BC
:1001F00003C00CF0100CBCF1000F03D091F802C04A
:100200004CEA050591F800C0BCF1000F31D014682C
:1002100000202BE04FF0010C0CFA00F3B1F800C005
:100220000CEA03069E4220D183004FF00F0C0CFA1B
:1002300003F7BC4305FA03FC4CEA040491F803C03D
:10024000BCF1280F06D14FF0010C0CFA00FCC2F8EB
:1002500014C00AE091F803C0BCF1480F05D14FF07B
:10026000010C0CFA00FCC2F810C0401C0828D1D3C5
:100270001460B1F800C0BCF1FF0F34DD54680020F9
:100280002EE000F1080C4FF0010808FA0CF3B1F869
:1002900000C00CEA03069E4221D183004FF00F0CF0
:1002A0000CFA03F7BC4305FA03FC4CEA040491F88A
:1002B00003C0BCF1280F05D100F1080C08FA0CF8B6
:1002C000C2F8148091F803C0BCF1480F07D100F1C7
:1002D000080C4FF0010808FA0CF8C2F81080401C16
:1002E0000828CED35460BDE8F08101617047C16039
:1002F000704700BFFEE7F8B506460D4614460121DB
:10030000304600F01DF8ADF8004003208DF80200E3
:1003100010208DF8030069462846FFF75BFF214651
:10032000284600F001F8F8BD70B504460D46294690
:100330002046FFF7DAFF70BD00BFFEE77047704749
:1003400029B1064A92690243044B9A6104E0034AC8
:1003500092698243014B9A6170470000001002408D
:100360000F48006840F001000D49086008464068E9
:100370000C4908400A494860084600680A49084094
:10038000074908600846006820F480200860084695
:10039000406820F4FE0048604FF41F0088607047FA
:1003A000001002400000FFF8FFFFF6FE10B5014606
:1003B0000022002300204A11012A02D1094C23689F
:1003C00006E0022A02D1074C236A01E0054C636A69
:1003D00001F01F02012494401C400CB1012000E0F8
:1003E000002010BD001002400248406800F00C00E0
:1003F000704700000010024001460020034A506888
:1004000020F0F000084350607047000000100240E8
:100410001149096821F480310F4A116011460968B9
:1004200021F480211160B0F5803F03D0B0F5802F1A
:100430000ED106E00849096841F48031064A11608E
:1004400007E00549096841F4A021034A116000E072
:1004500000BF00BF704700000010024070B50446A6
:100460000D46FFF77DFF4FF48030FFF7D1FF00F01E
:100470005BF801281ED10020FFF7BEFF4FF480601B
:1004800000F01AF8002000F023F82946204600F07A
:1004900031F8012000F028F800BF3920FFF786FF6F
:1004A0000028FAD0022000F033F800BFFFF79CFFCD
:1004B0000828FBD170BD000001460020034A5068A7
:1004C00020F4E060084350607047000000100240D4
:1004D00001460020034A506820F4605040EAC10001
:1004E00050607047001002400149086670470000E4
:1004F0000000424202460020044B586820F47C1061
:1005000042EA01031843014B586070470010024053
:1005100001460020034A506820F003000843506061
:10052000704700000010024038B500200090002401
:10053000002500BF3120FFF739FF05460098401C19
:1005400000900098B0F5A06F01D0002DF2D03120BE
:10055000FFF72CFF08B1012400E00024204638BD3D
:10056000F8B506460C46154601213046FFF7E8FE71
:10057000ADF8005003208DF8020010208DF8030024
:1005800069462046FFF726FE0248017C204600F01F
:1005900003F8F8BD0000002070B504460D4629465A
:1005A0002046FFF7A4FE70BD704710B500F002F8BA
:1005B00010BD00000CB50020019000903348006889
:1005C00040F480303149086000BF3048006800F4D2
:1005D000003000900198401C0190009818B90198D3
:1005E000B0F5A06FF1D12948006800F4003010B1D7
:1005F0000120009001E0002000900098012843D1E4
:100600002348006840F0100021490860084600684F
:1006100020F0030008600846006840F0020008600F
:100620001A484068194948600846406848600846CA
:10063000406840F4806048600846406820F47C10C0
:1006400048600846406840F4E81048600846006882
:1006500040F08070086000BF0C48006800F0007037
:100660000028F9D00948406820F003000749486095
:100670000846406840F00200486000BF03484068F8
:1006800000F00C000828F9D10CBD00000010024059
:1006900000200240042808D14FF0E021096941F010
:1006A00004014FF0E022116107E04FF0E0210969F9
:1006B00021F004014FF0E022116170477047000003
:1006C00010B504466FF00400FFF7E4FFE11704EBF8
:1006D0005171C1F3CF01074A11801046008800EB29
:1006E0004001C1EBC0104FF6FF7101EAC0000249A2
:1006F000088010BD120000201400002010B513481F
:10070000006840F00100114908600846406810493F
:1007100008400E494860084600680E4908400B49E9
:1007200008600846006820F4802008600846406899
:1007300020F4FE0048604FF41F008860FFF735FF8B
:100740004FF000600449086010BD00000010024036
:100750000000FFF8FFFFF6FE08ED00E000BFFEE737
:1007600002E008C8121F08C1002AFAD1704770477A
:10077000002001E001C1121F002AFBD1704710B513
:1007800004460DE0B4F57A7F06D94FF47A7000F094
:100790000BF8A4F57A7403E0A0B200F005F8002489
:1007A000002CEFD110BD00000146114A12884A43C7
:1007B0004FF0E0235A6100229A611A46126942F012
:1007C00001021A6100BF4FF0E022106900F001023F
:1007D0001AB100F48032002AF5D04FF0E0221269FD
:1007E00022F001024FF0E0231A6100229A61704763
:1007F000140000204FF420114FF48030FFF72EFE3C
:100800006020FFF75DFF00BF202221490820FFF78D
:1008100072FD20221F494020FFF76DFD00BFFF221F
:100820001D498020FFF79CFE4FF480721849082074
:10083000FFF7ACFC00242AE01848006808B9012042
:1008400000E00020154908601548D0F8940108B967
:10085000012000E00020134908601348015D0E48A4
:10086000FFF79AFE0E48D0F8A00108B9012000E079
:1008700000200C490C3108604FF49670FFF77FFFA1
:10088000601C112190FBF1F201FB1200C4B2D3E70E
:10089000000C014000180140001C0140940123425B
:1008A000008021429481214200000020CC080008F1
:1008B000000000201800000060070008E40800089D
:1008C0001800002000040000700700083F065B4F7E
:1008D000666D7D077F6F777C395E7971000000005F
:0408E0000000000014
:0400000508000131BD
:00000001FF
