:020000040800F2
:100000000004002045010008F7020008AD020008C6
:10001000F30200088D0100086D04000800000000D4
:100020000000000000000000000000001D030008A8
:100030009101000800000000F9020008090400080E
:100040005F0100085F0100085F0100085F01000810
:100050005F0100085F0100085F0100085F01000800
:100060005F0100085F0100085F0100085F010008F0
:100070005F0100085F0100085F0100085F010008E0
:100080005F0100085F0100085F0100085F010008D0
:100090005F0100085F0100085F0100085F010008C0
:1000A0005F0100085F0100085F0100085F010008B0
:1000B0005F0100085F0100085F0100085F010008A0
:1000C0005F0100085F0100085F0100085F01000890
:1000D0005F0100085F0100085F0100085F01000880
:1000E0005F0100085F0100085F0100085F01000870
:1000F0005F0100085F0100085F0100085F01000860
:100100005F0100085F0100085F0100085F0100084F
:100110005F0100085F0100085F0100085F0100083F
:100120005F0100085F0100085F0100085F0100082F
:10013000DFF80CD000F018F8004800479D040008D4
:10014000000400200648804706480047FEE7FEE717
:10015000FEE7FEE7FEE7FEE7FEE7FEE7FEE7FEE777
:100160000D04000831010008064C074D06E0E06868
:1001700040F0010394E8070098471034AC42F6D3EE
:10018000FFF7DAFFFC0400080C05000800BFFEE7DB
:1001900070472DE9F041024600250026002000238B
:1001A0000024002791F803C00CF00F0591F803C05C
:1001B0000CF0100CBCF1000F03D091F802C04CEA17
:1001C000050591F800C0BCF1000F31D01468002083
:1001D0002BE04FF0010C0CFA00F3B1F800C00CEA70
:1001E00003069E4220D183004FF00F0C0CFA03F758
:1001F000BC4305FA03FC4CEA040491F803C0BCF1CB
:10020000280F06D14FF0010C0CFA00FCC2F814C004
:100210000AE091F803C0BCF1480F05D14FF0010C82
:100220000CFA00FCC2F810C0401C0828D1D314609E
:10023000B1F800C0BCF1FF0F34DD546800202EE09F
:1002400000F1080C4FF0010808FA0CF3B1F800C0F7
:100250000CEA03069E4221D183004FF00F0C0CFAEA
:1002600003F7BC4305FA03FC4CEA040491F803C00D
:10027000BCF1280F05D100F1080C08FA0CF8C2F8FF
:10028000148091F803C0BCF1480F07D100F1080CAD
:100290004FF0010808FA0CF8C2F81080401C08283A
:1002A000CED35460BDE8F0810161704700BFFEE726
:1002B000F8B506460D4614460121304600F01EF8FA
:1002C000ADF8004003208DF8020010208DF80300E7
:1002D00069462846FFF75DFF2146284600F001F8F1
:1002E000F8BD70B504460D4629462046FFF7DCFFF1
:1002F00070BD00BFFEE770477047000029B1064A95
:1003000092690243044B9A6104E0034A9269824372
:10031000014B9A617047000000100240704710B511
:1003200000F002F810BD00000CB500200190009014
:100330003348006840F480303149086000BF3048DD
:10034000006800F4003000900198401C0190009873
:1003500018B90198B0F5A06FF1D12948006800F4F0
:10036000003010B10120009001E0002000900098C2
:10037000012843D12348006840F01000214908605B
:100380000846006820F0030008600846006840F056
:10039000020008601A4840681949486008464068E9
:1003A00048600846406840F48060486008464068FD
:1003B00020F47C1048600846406840F4E81048602B
:1003C0000846006840F08070086000BF0C48006874
:1003D00000F000700028F9D00948406820F00300C0
:1003E000074948600846406840F00200486000BF86
:1003F0000348406800F00C000828F9D10CBD00004B
:1004000000100240002002407047000010B5134861
:10041000006840F001001149086008464068104932
:1004200008400E494860084600680E4908400B49DC
:1004300008600846006820F480200860084640688C
:1004400020F4FE0048604FF41F008860FFF767FF4C
:100450004FF000600449086010BD00000010024029
:100460000000FFF8FFFFF6FE08ED00E000BFFEE72A
:1004700002E008C8121F08C1002AFAD1704770476D
:10048000002001E001C1121F002AFBD1704700BF0C
:10049000011EA0F10100FBD170470000202211498C
:1004A0000820FFF705FF20220F494020FFF700FF3B
:1004B00016E00E48006808B9012000E000200B4952
:1004C00008600B48FFF7E3FF0A48D0F8940108B929
:1004D000012000E00020084908600548FFF7D7FF29
:1004E000E7E70000000C014000180140940123429E
:1004F000AAB0280000802142948121420C05000806
:0C0500000000002000040000800400083F
:0400000508000131BD
:00000001FF
