:020000040800F2
:1000000008040020450100085D03000813030008F0
:1000100059030008F301000835050008000000003E
:100020000000000000000000000000008103000844
:10003000F7010008000000005F03000895040008B5
:100040005F0100085F0100085F0100085F01000810
:100050005F0100085F0100085F0100085F01000800
:100060005F0100085F0100085F0100085F010008F0
:100070005F0100085F0100085F0100085F010008E0
:100080005F0100085F0100085F0100085F010008D0
:100090005F0100085F0100085F0100085F010008C0
:1000A0005F0100085F0100085F0100085F010008B0
:1000B0005F0100085F0100085F0100085F010008A0
:1000C0005F0100085F0100085F0100085F01000890
:1000D0005F0100085F0100085F0100085F01000880
:1000E0005F0100085F0100085F0100085F01000870
:1000F0005F0100085F0100085F0100085F01000860
:100100005F0100085F0100085F0100085F0100084F
:100110005F0100085F0100085F0100085F0100083F
:100120005F0100085F0100085F0100085F0100082F
:10013000DFF80CD000F02AF800480047CD05000891
:10014000080400200648804706480047FEE7FEE70F
:10015000FEE7FEE7FEE7FEE7FEE7FEE7FEE7FEE777
:10016000D5040008310100080649074A08685043D1
:1001700043F23902104408604008704701490860A2
:1001800070470000040000206D4EC641064C074D2C
:1001900006E0E06840F0010394E807009847103457
:1001A000AC42F6D3FFF7C8FF440600086406000817
:1001B000F8B506460D4614460121304600F0D0F849
:1001C000ADF8004003208DF8020010208DF80300E8
:1001D0006946284600F010F82146284600F001F84C
:1001E000F8BD70B504460D462946204600F08FF84C
:1001F00070BD00BFFEE770472DE9F04102460025C3
:100200000026002000230024002791F803C00CF0F2
:100210000F0591F803C00CF0100CBCF1000F03D0D7
:1002200091F802C04CEA050591F800C0BCF1000F3E
:1002300031D0146800202BE04FF0010C0CFA00F3D1
:10024000B1F800C00CEA03069E4220D183004FF0B3
:100250000F0C0CFA03F7BC4305FA03FC4CEA040448
:1002600091F803C0BCF1280F06D14FF0010C0CFA35
:1002700000FCC2F814C00AE091F803C0BCF1480FBA
:1002800005D14FF0010C0CFA00FCC2F810C0401C64
:100290000828D1D31460B1F800C0BCF1FF0F34DDE1
:1002A000546800202EE000F1080C4FF0010808FA15
:1002B0000CF3B1F800C00CEA03069E4221D1830082
:1002C0004FF00F0C0CFA03F7BC4305FA03FC4CEAA1
:1002D000040491F803C0BCF1280F05D100F1080C0B
:1002E00008FA0CF8C2F8148091F803C0BCF1480F6A
:1002F00007D100F1080C4FF0010808FA0CF8C2F819
:100300001080401C0828CED35460BDE8F081016104
:10031000704700BFFEE7F8B506460D4614460121BA
:10032000304600F01DF8ADF8004003208DF80200C3
:1003300010208DF8030069462846FFF75DFF21462F
:10034000284600F001F8F8BD70B504460D46294670
:100350002046FFF7DCFF70BD00BFFEE77047704727
:1003600029B1064A92690243044B9A6104E0034AA8
:1003700092698243014B9A6170470000001002406D
:10038000704710B500F002F810BD00000CB5002059
:10039000019000903348006840F480303149086093
:1003A00000BF3048006800F4003000900198401C05
:1003B0000190009818B90198B0F5A06FF1D12948C3
:1003C000006800F4003010B10120009001E000202E
:1003D00000900098012843D12348006840F01000A5
:1003E000214908600846006820F0030008600846BC
:1003F000006840F0020008601A48406819494860E7
:100400000846406848600846406840F4806048609C
:100410000846406820F47C1048600846406840F474
:10042000E81048600846006840F08070086000BF2F
:100430000C48006800F000700028F9D009484068B6
:1004400020F00300074948600846406840F0020079
:10045000486000BF0348406800F00C000828F9D14C
:100460000CBD00000010024000200240042808D10A
:100470004FF0E021096941F004014FF0E0221161E1
:1004800007E04FF0E021096921F004014FF0E0227C
:10049000116170477047000010B504466FF004000A
:1004A000FFF7E4FFE11704EB5171C1F3CF01074AF5
:1004B00011801046008800EB4001C1EBC0104FF6E0
:1004C000FF7101EAC0000249088010BD0000002051
:1004D0000200002010B51348006840F001001149E7
:1004E000086008464068104908400E4948600846C0
:1004F00000680E4908400B4908600846006820F46F
:10050000802008600846406820F4FE0048604FF4F0
:100510001F008860FFF735FF4FF000600449086056
:1005200010BD0000001002400000FFF8FFFFF6FEC3
:1005300008ED00E000BFFEE702E008C8121F08C196
:10054000002AFAD170477047002001E001C1121F54
:10055000002AFBD1704710B504460DE0B4F57A7F50
:1005600006D94FF47A7000F00BF8A4F57A7403E022
:10057000A0B200F005F80024002CEFD110BD00005F
:100580000146114A12884A434FF0E0235A61002283
:100590009A611A46126942F001021A6100BF4FF0D7
:1005A000E022106900F001021AB100F48032002A42
:1005B000F5D04FF0E022126922F001024FF0E02363
:1005C0001A6100229A617047020000202022184917
:1005D0004020FFF7A0FE4FF4807216490820FFF775
:1005E000E7FD4820FFF758FF5620FFF7C7FD1DE045
:1005F0001148006808B9012000E000200E49086099
:100600000E48D0F8940108B9012000E000200C4900
:100610000860FFF7A9FD4FF4AA7190FBF1F201FB0E
:10062000120000F13C042046FFF795FFE0E70000D0
:1006300000180140000C0140A0812142000023422B
:100640009401234264060008000000200800000016
:10065000380500086C0600080800002000040000AF
:0C06600048050008000000000000000039
:0400000508000131BD
:00000001FF
