:020000040800F2
:100000001804002045010008FB020008B1020008A6
:10001000F70200088D010008B90400080000000084
:10002000000000000000000000000000690300085C
:100030009101000800000000FD02000855040008BE
:100040005F0100085F0100085F0100085F01000810
:100050005F0100085F0100085F0100085F01000800
:100060005F0100085F0100085F0100085F010008F0
:100070005F0100085F0100085F0100085F010008E0
:100080005F0100085F0100085F0100085F010008D0
:100090005F0100085F0100085F0100085F010008C0
:1000A0005F0100085F0100085F0100085F010008B0
:1000B0005F0100085F0100085F0100085F010008A0
:1000C0005F0100085F0100085F0100085F01000890
:1000D0005F0100085F0100085F0100085F01000880
:1000E0005F0100085F0100085F0100085F01000870
:1000F0005F0100085F0100085F0100085F01000860
:100100005F0100085F0100085F0100085F0100084F
:100110005F0100085F0100085F0100085F0100083F
:100120005F0100085F0100085F0100085F0100082F
:10013000DFF80CD000F018F800480047E904000888
:10014000180400200648804706480047FEE7FEE7FF
:10015000FEE7FEE7FEE7FEE7FEE7FEE7FEE7FEE777
:100160005904000831010008064C074D06E0E0681C
:1001700040F0010394E8070098471034AC42F6D3EE
:10018000FFF7DAFF440500086405000800BFFEE73A
:1001900070472DE9F041024600250026002000238B
:1001A0000024002791F803C00CF00F0591F803C05C
:1001B0000CF0100CBCF1000F03D091F802C04CEA17
:1001C000050591F800C0BCF1000F31D01468002083
:1001D0002BE04FF0010C0CFA00F3B1F800C00CEA70
:1001E00003069E4220D183004FF00F0C0CFA03F758
:1001F000BC4305FA03FC4CEA040491F803C0BCF1CB
:10020000280F06D14FF0010C0CFA00FCC2F814C004
:100210000AE091F803C0BCF1480F05D14FF0010C82
:100220000CFA00FCC2F810C0401C0828D1D314609E
:10023000B1F800C0BCF1FF0F34DD546800202EE09F
:1002400000F1080C4FF0010808FA0CF3B1F800C0F7
:100250000CEA03069E4221D183004FF00F0C0CFAEA
:1002600003F7BC4305FA03FC4CEA040491F803C00D
:10027000BCF1280F05D100F1080C08FA0CF8C2F8FF
:10028000148091F803C0BCF1480F07D100F1080CAD
:100290004FF0010808FA0CF8C2F81080401C08283A
:1002A000CED35460BDE8F08101617047C1607047F2
:1002B00000BFFEE7F8B506460D461446012130465C
:1002C00000F01EF8ADF8004003208DF80200102069
:1002D0008DF8030069462846FFF75BFF2146284654
:1002E00000F001F8F8BD70B504460D4629462046D9
:1002F000FFF7DAFF70BD00BFFEE7704770470000F0
:1003000029B1064A92690243044B9A6104E0034A08
:1003100092698243014B9A617047000000100240CD
:10032000F8B506460C46154601213046FFF7E8FFB2
:10033000ADF8005003208DF8020010208DF8030066
:1003400069462046FFF725FF0248017C204600F061
:1003500003F8F8BD0000002070B504460D4629469C
:100360002046FFF7A3FF70BD704710B500F002F8FC
:1003700010BD00000CB500200190009033480068CB
:1003800040F480303149086000BF3048006800F414
:10039000003000900198401C0190009818B9019815
:1003A000B0F5A06FF1D12948006800F4003010B119
:1003B0000120009001E0002000900098012843D126
:1003C0002348006840F01000214908600846006892
:1003D00020F0030008600846006840F00200086052
:1003E0001A4840681949486008464068486008460D
:1003F000406840F4806048600846406820F47C1003
:1004000048600846406840F4E810486008460068C4
:1004100040F08070086000BF0C48006800F0007079
:100420000028F9D00948406820F0030007494860D7
:100430000846406840F00200486000BF034840683A
:1004400000F00C000828F9D10CBD0000001002409B
:10045000002002407047000010B51348006840F0CB
:1004600001001149086008464068104908400E49DB
:100470004860084600680E4908400B490860084675
:10048000006820F4802008600846406820F4FE00E0
:1004900048604FF41F008860FFF767FF4FF000606F
:1004A0000449086010BD0000001002400000FFF881
:1004B000FFFFF6FE08ED00E000BFFEE702E008C81F
:1004C000121F08C1002AFAD170477047002001E0CE
:1004D00001C1121F002AFBD1704700BF011EA0F10D
:1004E0000100FBD170470000202211494020FFF796
:1004F000E1FEFF220F498020FFF712FF002416E0E3
:100500000D48006808B9012000E000200A49086091
:100510000A48015D0748FFF71FFF0948FFF7DDFFA5
:10052000601C112190FBF1F201FB1200C4B2E7E75D
:1005300000180140001C01409401234200000020EB
:10054000AAB0280064050008000000201400000084
:10055000BC04000878050008140000200404000012
:10056000CC0400083F065B4F666D7D077F6F777C8C
:08057000395E79710000000002
:0400000508000131BD
:00000001FF
