:020000040800F2
:10000000000400204501000803030008B1020008B5
:10001000FF0200088D0100087906000800000000BA
:10002000000000000000000000000000290500089A
:1000300091010008000000000503000815060008F3
:100040005F0100085F0100085F0100085F01000810
:100050005F0100085F0100085F0100085F01000800
:100060005F0100085F0100085F0100085F010008F0
:100070005F0100085F0100085F0100085F010008E0
:100080005F0100085F0100085F0100085F010008D0
:100090005F0100085F0100085F0100085F010008C0
:1000A0005F0100085F0100085F0100085F010008B0
:1000B0005F0100085F0100085F0100085F010008A0
:1000C0005F0100085F0100085F0100085F01000890
:1000D0005F0100085F0100085F0100085F01000880
:1000E0005F0100085F0100085F0100085F01000870
:1000F0005F0100085F0100085F0100085F01000860
:100100005F0100085F0100085F0100085F0100084F
:100110005F0100085F0100085F0100085F0100083F
:100120005F0100085F0100085F0100085F0100082F
:10013000DFF80CD000F018F800480047A9060008C6
:10014000000400200648804706480047FEE7FEE717
:10015000FEE7FEE7FEE7FEE7FEE7FEE7FEE7FEE777
:100160001906000831010008064C074D06E0E0685A
:1001700040F0010394E8070098471034AC42F6D3EE
:10018000FFF7DAFF140700082407000800BFFEE7A6
:1001900070472DE9F041024600250026002000238B
:1001A0000024002791F803C00CF00F0591F803C05C
:1001B0000CF0100CBCF1000F03D091F802C04CEA17
:1001C000050591F800C0BCF1000F31D01468002083
:1001D0002BE04FF0010C0CFA00F3B1F800C00CEA70
:1001E00003069E4220D183004FF00F0C0CFA03F758
:1001F000BC4305FA03FC4CEA040491F803C0BCF1CB
:10020000280F06D14FF0010C0CFA00FCC2F814C004
:100210000AE091F803C0BCF1480F05D14FF0010C82
:100220000CFA00FCC2F810C0401C0828D1D314609E
:10023000B1F800C0BCF1FF0F34DD546800202EE09F
:1002400000F1080C4FF0010808FA0CF3B1F800C0F7
:100250000CEA03069E4221D183004FF00F0C0CFAEA
:1002600003F7BC4305FA03FC4CEA040491F803C00D
:10027000BCF1280F05D100F1080C08FA0CF8C2F8FF
:10028000148091F803C0BCF1480F07D100F1080CAD
:100290004FF0010808FA0CF8C2F81080401C08283A
:1002A000CED35460BDE8F081416170470161704771
:1002B00000BFFEE7F8B506460C461546012130465C
:1002C00000F022F8ADF8005003208DF80200102055
:1002D0008DF8030069462046FFF75BFFF8BD70B557
:1002E00004460D4629462046FFF7E0FF70BD70B575
:1002F00004460D4629462046FFF7D6FF70BD00BFD5
:10030000FEE770477047000029B1064A9269024330
:10031000044B9A6104E0034A92698243014B9A615B
:1003200070470000001002400F48006840F00100D4
:100330000D490860084640680C4908400A49486071
:10034000084600680A4908400749086008460068EE
:1003500020F4802008600846406820F4FE004860D1
:100360004FF41F0088607047001002400000FFF843
:10037000FFFFF6FE10B501460022002300204A11BF
:10038000012A02D1094C236806E0022A02D1074C57
:10039000236A01E0054C636A01F01F0201249440C6
:1003A0001C400CB1012000E0002010BD00100240F4
:1003B0000248406800F00C00704700000010024046
:1003C00001460020034A506820F0F00008435060C6
:1003D00070470000001002401149096821F4803183
:1003E0000F4A11601146096821F480211160B0F5AF
:1003F000803F03D0B0F5802F0ED106E00849096890
:1004000041F48031064A116007E00549096841F46A
:10041000A021034A116000E000BF00BF7047000048
:100420000010024070B504460D46FFF77DFF4FF403
:100430008030FFF7D1FF00F05BF801281ED10020CB
:10044000FFF7BEFF4FF4806000F01AF8002000F0C4
:1004500023F82946204600F031F8012000F028F862
:1004600000BF3920FFF786FF0028FAD0022000F0F5
:1004700033F800BFFFF79CFF0828FBD170BD0000D8
:1004800001460020034A506820F4E06008435060B1
:10049000704700000010024001460020034A5068E7
:1004A00020F4605040EAC1005060704700100240E4
:1004B00001490866704700000000424202460020E1
:1004C000044B586820F47C1042EA01031843014BA6
:1004D000586070470010024001460020034A5068EF
:1004E00020F00300084350607047000000100240F5
:1004F00038B5002000900024002500BF3120FFF710
:1005000039FF05460098401C00900098B0F5A06F98
:1005100001D0002DF2D03120FFF72CFF08B10124CB
:1005200000E00024204638BD704710B500F002F806
:1005300010BD00000CB50020019000903348006809
:1005400040F480303149086000BF3048006800F452
:10055000003000900198401C0190009818B9019853
:10056000B0F5A06FF1D12948006800F4003010B157
:100570000120009001E0002000900098012843D164
:100580002348006840F010002149086008460068D0
:1005900020F0030008600846006840F00200086090
:1005A0001A4840681949486008464068486008464B
:1005B000406840F4806048600846406820F47C1041
:1005C00048600846406840F4E81048600846006803
:1005D00040F08070086000BF0C48006800F00070B8
:1005E0000028F9D00948406820F003000749486016
:1005F0000846406840F00200486000BF0348406879
:1006000000F00C000828F9D10CBD000000100240D9
:10061000002002407047000010B51348006840F009
:1006200001001149086008464068104908400E4919
:100630004860084600680E4908400B4908600846B3
:10064000006820F4802008600846406820F4FE001E
:1006500048604FF41F008860FFF767FF4FF00060AD
:100660000449086010BD0000001002400000FFF8BF
:10067000FFFFF6FE08ED00E000BFFEE702E008C85D
:10068000121F08C1002AFAD170477047002001E00C
:1006900001C1121F002AFBD1704700BF011EA0F14B
:1006A0000100FBD1704700004FF480218810FFF754
:1006B000B9FE202215494020FFF7FCFD0624002545
:1006C00023E025B94FF480218810FFF7ABFE04EB3F
:1006D000D471B5EB610F05D14FF420114FF44030C8
:1006E000FFF7A0FE20210948FFF701FE0848FFF7A9
:1006F000D4FF20210548FFF7F2FD0548FFF7CDFFA5
:10070000681C90FBF4F104FB1105DAE700180140C6
:10071000006A180024070008000000200004000000
:040720008C0600083B
:0400000508000131BD
:00000001FF
