:020000040800F2
:1000000000040020450100084D0100084F010008D0
:1000100051010008530100085501000800000000CC
:100020000000000000000000000000005701000870
:1000300059010008000000005B0100085D01000894
:100040005F0100085F0100085F0100085F01000810
:100050005F0100085F0100085F0100085F01000800
:100060005F0100085F0100085F0100085F010008F0
:100070005F0100085F0100085F0100085F010008E0
:100080005F0100085F0100085F0100085F010008D0
:100090005F0100085F0100085F0100085F010008C0
:1000A0005F0100085F0100085F0100085F010008B0
:1000B0005F0100085F0100085F0100085F010008A0
:1000C0005F0100085F0100085F0100085F01000890
:1000D0005F0100085F0100085F0100085F01000880
:1000E0005F0100085F0100085F0100085F01000870
:1000F0005F0100085F0100085F0100085F01000860
:100100005F0100085F0100085F0100085F0100084F
:100110005F0100085F0100085F0100085F0100083F
:100120005F0100085F0100085F0100085F0100082F
:10013000DFF80CD000F018F800480047B9010008BB
:10014000000400200648804706480047FEE7FEE717
:10015000FEE7FEE7FEE7FEE7FEE7FEE7FEE7FEE777
:100160008D01000831010008064C074D06E0E068EB
:1001700040F0010394E8070098471034AC42F6D3EE
:10018000FFF7DAFF1802000828020008704702E0B3
:1001900008C8121F08C1002AFAD170477047002012
:1001A00001E001C1121F002AFBD1704700BF011EF0
:1001B000A0F10100FBD170471448806940F00800AD
:1001C000124988611248006820F4700010490860E4
:1001D0000846006840F44010086015E00C481030F4
:1001E000006840F400100A49103108600948FFF720
:1001F000DDFF07481030006840F02000044910314E
:1002000008600448FFF7D2FFE8E700000010024052
:10021000000C014000127A002802000800000020B3
:08022000000400009E0100082B
:0400000508000131BD
:00000001FF
