:020000040800F2
:1000000000040020450100084D0100084F010008D0
:1000100051010008530100085501000800000000CC
:100020000000000000000000000000005701000870
:1000300059010008000000005B0100085D01000894
:100040005F0100085F0100085F0100085F01000810
:100050005F0100085F0100085F0100085F01000800
:100060005F0100085F0100085F0100085F010008F0
:100070005F0100085F0100085F0100085F010008E0
:100080005F0100085F0100085F0100085F010008D0
:100090005F0100085F0100085F0100085F010008C0
:1000A0005F0100085F0100085F0100085F010008B0
:1000B0005F0100085F0100085F0100085F010008A0
:1000C0005F0100085F0100085F0100085F01000890
:1000D0005F0100085F0100085F0100085F01000880
:1000E0005F0100085F0100085F0100085F01000870
:1000F0005F0100085F0100085F0100085F01000860
:100100005F0100085F0100085F0100085F0100084F
:100110005F0100085F0100085F0100085F0100083F
:100120005F0100085F0100085F0100085F0100082F
:10013000DFF80CD000F018F800480047ED01000887
:10014000000400200648804706480047FEE7FEE717
:10015000FEE7FEE7FEE7FEE7FEE7FEE7FEE7FEE777
:10016000A701000831010008064C074D06E0E068D1
:1001700040F0010394E8070098471034AC42F6D3EE
:10018000FFF7DAFF200300083003000810B502462D
:100190001346002004E001EB800443F82040401C9B
:1001A0000728F8D310BD704702E008C8121F08C125
:1001B000002AFAD170477047002001E001C1121FE8
:1001C000002AFBD1704700BF011EA0F10100FBD146
:1001D0007047000004498969821C01239340194338
:1001E000014A9161704700000010024095B02F490C
:1001F0000EA8FFF7CBFF2E4907A8FFF7C7FF012086
:10020000FFF7E8FF05210E9800F058F801220521BC
:10021000129800F074F80420FFF7DCFF052107981E
:1002200000F04CF8012205210B9800F068F800243A
:1002300020496846FFF7AAFF0E250520FFF7CAFFF1
:100240002946009800F03AF81B4E2EE03046FFF7A2
:10025000BAFF2CB901222946049800F050F80CE0AE
:10026000012C05D101220521129800F048F804E084
:10027000012205210B9800F042F83046FFF7A3FF5A
:1002800000222946049800F03AF80022052112982D
:1002900000F035F8002205210B9800F030F8601CC2
:1002A000032190FBF1F201FB1204CFE7000C0140A7
:1002B00000180140001C0140006A180010B5072911
:1002C0000CDC8C000F23A34002689A4302608C0070
:1002D0000323A34002681A4302600FE0A1F1080360
:1002E0009C000F23A34042689A434260A1F1080397
:1002F0009C000323A34042681A43426010BD30B5FE
:100300003AB101F110040125A54003682B430360B5
:1003100004E001248C4003682343036030BD0000E7
:10032000300300080000002000040000B8010008AD
:0400000508000131BD
:00000001FF
