:020000040800F2
:1000000008040020450100088F030008BF02000813
:100010008B0300088D0100080505000800000000A2
:10002000000000000000000000000000B503000810
:10003000910100080000000091030008A1040008DD
:100040005F0100085F0100085F0100085F01000810
:100050005F0100085F0100085F0100085F01000800
:100060005F0100085F0100085F0100085F010008F0
:100070005F0100085F0100085F0100085F010008E0
:100080005F0100085F0100085F0100085F010008D0
:100090005F0100085F0100085F0100085F010008C0
:1000A0005F0100085F0100085F0100085F010008B0
:1000B0005F0100085F0100085F0100085F010008A0
:1000C0005F0100085F0100085F0100085F01000890
:1000D0005F0100085F0100085F0100085F01000880
:1000E0005F0100085F0100085F0100085F01000870
:1000F0005F0100085F0100085F0100085F01000860
:100100005F0100085F0100085F0100085F0100084F
:100110005F0100085F0100085F0100085F0100083F
:100120005F0100085F0100085F0100085F0100082F
:10013000DFF80CD000F018F8004800472905000847
:10014000080400200648804706480047FEE7FEE70F
:10015000FEE7FEE7FEE7FEE7FEE7FEE7FEE7FEE777
:10016000A504000831010008064C074D06E0E068D0
:1001700040F0010394E8070098471034AC42F6D3EE
:10018000FFF7DAFFE40500080406000800BFFEE7F9
:1001900070472DE9F041024600250026002000238B
:1001A0000024002791F803C00CF00F0591F803C05C
:1001B0000CF0100CBCF1000F03D091F802C04CEA17
:1001C000050591F800C0BCF1000F31D01468002083
:1001D0002BE04FF0010C0CFA00F3B1F800C00CEA70
:1001E00003069E4220D183004FF00F0C0CFA03F758
:1001F000BC4305FA03FC4CEA040491F803C0BCF1CB
:10020000280F06D14FF0010C0CFA00FCC2F814C004
:100210000AE091F803C0BCF1480F05D14FF0010C82
:100220000CFA00FCC2F810C0401C0828D1D314609E
:10023000B1F800C0BCF1FF0F34DD546800202EE09F
:1002400000F1080C4FF0010808FA0CF3B1F800C0F7
:100250000CEA03069E4221D183004FF00F0C0CFAEA
:1002600003F7BC4305FA03FC4CEA040491F803C00D
:10027000BCF1280F05D100F1080C08FA0CF8C2F8FF
:10028000148091F803C0BCF1480F07D100F1080CAD
:100290004FF0010808FA0CF8C2F81080401C08283A
:1002A000CED35460BDE8F0810246002093680B4035
:1002B0000BB1012000E0002070470161704700BFD2
:1002C000FEE7F8B507460C4615461E46012138469E
:1002D00000F060F8ADF8005003208DF802008DF8B2
:1002E000036069462046FFF754FFF8BD2DE9F04151
:1002F00005460E4617461C4612480068012811D1D3
:1003000039463046FFF7D0FFA0420BD100200D49FF
:10031000086039463046FFF7C7FFA0420BD10120E5
:10032000BDE8F08139463046FFF7BEFFA04202D05B
:10033000012004490860012D02D101200149086013
:100340000020EDE700000020F8B506460D461446F3
:100350000121304600F01EF8ADF8004003208DF872
:10036000020010208DF8030069462846FFF711FFB0
:100370002146284600F001F8F8BD70B504460D4648
:1003800029462046FFF799FF70BD00BFFEE7704782
:100390007047000029B1064A92690243044B9A61F2
:1003A00004E0034A92698243014B9A61704700005E
:1003B00000100240704710B500F002F810BD0000B8
:1003C0000CB50020019000903348006840F4803064
:1003D0003149086000BF3048006800F400300090E8
:1003E0000198401C0190009818B90198B0F5A06FD1
:1003F000F1D12948006800F4003010B101200090CC
:1004000001E0002000900098012843D123480068B3
:1004100040F01000214908600846006820F0030001
:1004200008600846006840F0020008601A4840680A
:10043000194948600846406848600846406840F4EA
:10044000806048600846406820F47C104860084698
:10045000406840F4E81048600846006840F080704A
:10046000086000BF0C48006800F000700028F9D058
:100470000948406820F00300074948600846406882
:1004800040F00200486000BF0348406800F00C00E4
:100490000828F9D10CBD00000010024000200240E5
:1004A0007047000010B51348006840F00100114982
:1004B000086008464068104908400E4948600846F0
:1004C00000680E4908400B4908600846006820F49F
:1004D000802008600846406820F4FE0048604FF421
:1004E0001F008860FFF767FF4FF000600449086055
:1004F00010BD0000001002400000FFF8FFFFF6FEF4
:1005000008ED00E000BFFEE702E008C8121F08C1C6
:10051000002AFAD170477047002001E001C1121F84
:10052000002AFBD17047000000BF20222749082085
:10053000FFF70AFF202226494020FFF705FF00BFF2
:1005400000BF2823012223490420FFF7BAFE4823D5
:1005500008221F494020FFF7B4FE482310221C49FF
:100560004020FFF7AEFE00BF2EE00023082218490E
:100570001846FFF7BBFE18B100201749086002E0DB
:100580000120154908600023102211491846FFF781
:10059000ADFE18B100201149086002E001200F49AA
:1005A000086001210B48FFF77FFE012806D10020DB
:1005B0000A4908600A49C1F8940105E00120074989
:1005C00008600749C1F89401CFE70000000C014022
:1005D0000018014000080140948121429401234207
:1005E00000802142040600080000002004000000F2
:1005F00008050008080600080400002004040000A4
:080600001805000801000000CC
:0400000508000131BD
:00000001FF
